:030000000209AA48
:0C09AA00787FE4F6D8FD75810E0208A4E9
:0A09B6004C59434F20534F465400A4
:0608E500D2937F057E00A6
:1008EB00E4FDFCC3ED9FEE6480F8EC64809850153A
:1008FB00E4FBFA0BBB00010AEB64734A70F50DBD08
:05090B0000010C80DE7C
:0109100022C4
:10095A00A907E954F0F590C2921208E5C293E9C4D6
:0E096A0054F0F590C292D2931208EBC2932281
:10097800A907E954F0F590D2921208E5C293E9C4A8
:0E09880054F0F590D292D2931208EBC2932253
:100911008B0C8A0D890EAB0CAA0DA90E1208006072
:1009210013050EE50E7002050D14F9120800FF12F1
:05093100097880E222BC
:100996007F0212095A7F2812095A7F0612095A7FC6
:0409A6000C02095ADC
:100936008F828E837C007D0A120819EF2430FF1205
:100946000978AE83AF827C007D0A120819ED243047
:04095600FF0209781B
:1008A400E4F5901209967F8012095A7BFF7A097940
:1008B400B6120911E4F50AF50B7FC012095AAF0B01
:1008C400AE0A1209367FF47E011208EB050BE50B24
:1008D4007002050AC39464E50A6480948040DA8057
:0108E400D340
:10080000BB010689828A83E0225002E722BBFE02F6
:09081000E32289828A83E4932229
:10081900C2D5EC30E709B2D5E4C39DFDE49CFCEEFA
:1008290030E715B2D5E4C39FFFE49EFE12084FC31B
:10083900E49DFDE49CFC800312084F30D507C3E416
:060849009FFFE49EFE2269
:10084F00BC000BBE0029EF8DF084FFADF022E4CC8D
:10085F00F875F008EF2FFFEE33FEEC33FCEE9DEC56
:10086F00984005FCEE9DFE0FD5F0E9E4CEFD22ED9C
:10087F00F8F5F0EE8420D21CFEADF075F008EF2FE6
:10088F00FFED33FD4007985006D5F0F222C398FDD7
:05089F000FD5F0EA2274
:00000001FF
